:020000040001F9
:10B00000D029002095F4010003BE010023C80100EF
:10B010009BC80100EBC801004BC901000000000003
:10B020000000000000000000000000007FC90100D7
:10B030000000000000000000C7D50100E3EE0100A1
:10B0400059F401007BF4010045F1010087F401008F
:10B05000B1F40100B3F4010091DD010053DF010000
:10B06000B5F40100B7F40100B9F40100BBF401002C
:10B07000BDF40100BFF40100C1F40100C3F40100FC
:10B08000C5F40100C1CD0100C7F40100C9F40100FD
:10B0900043CE0100CBF40100D5ED0100CDF4010059
:10B0A000CFF40100D1F40100D3F40100D5F4010084
:10B0B000D7F40100D9F401000000000000000000F6
:10B0C000DBF40100DDF40100DFF40100E1F4010034
:10B0D000E3F40100E5F401000000000000000000BE
:10B0E0000000000000000000000000000000000060
:10B0F0000000000000000000000000000000000050
:10B10000000000000000000000000000000000003F
:10B11000000000000000000000000000000000002F
:10B40000DFF8FC154A6F012303FA00F022EA00007E
:10B41000486770470C22DFF8EC15504308440121BF
:10B4200081724FF6FF710181FF21C172072100F087
:10B43000E5BC38B504461C21DFF8B8056143451862
:10B44000062105F1110000F0D9FC1021284600F07A
:10B45000D5FCFF202874A8764FF6FF70288320467D
:10B46000FFF7CEFFDFF8D81501EB840100208865D7
:10B4700031BD30B5DFF8CC45A57A082329420AD082
:10B480004FF6FF7188421CBF2189884203BF00200C
:10B49000106000230523184630BD30B583B0044644
:10B4A0006A46A1B2DFF8A00501F038F8050008D11E
:10B4B0007421684601F015F9050004BF2046FFF726
:10B4C000B8FF28463EBD2DE9F04104460D469046A2
:10B4D000052700261C21DFF81C057143084444B9E8
:10B4E000008B80450CD0761C072EF3D33846BDE880
:10B4F000F08107222146103001F062F90028F2D1D4
:10B500002E600027F2E7DFF838351B681847002067
:10B5100070472DE9FC4704460D46DFF8E484A17826
:10B520006A4608F1780000F0F9FF002840D1607801
:10B53000DFF8D0A40C2670435044807A400601D432
:10B54000022D02D1DFF8049505E0012D0CBFDFF8D4
:10B550000095DFF80095A178DFF898041C2717FB09
:10B5600001F1014400231C226846C84798B9022D06
:10B570001ED06078704350441C23817A01F0BF01D3
:10B5800081721C22607817FB00F0404400F1180122
:10B590006846C84701E0022D0AD023780FF21C420A
:10B5A0007343434421469B7A52F8232068469047D0
:10B5B000BDE8F387002070472DE9F14F88B01A20CD
:10B5C000ADF800004FF00C09DFF838A40C46032357
:10B5D000607819FB00F050446A46008901A9AADF8F
:10B5E000002838D194F801B0DFF81464BDF8008069
:10B5F000242515FB0BF03718424607F13C0001F0FB
:10B60000DFF858B919FB0BF05044807A800722D438
:10B61000242107F1340000F0F1FB1CE0B86B002896
:10B6200014BFDFF82894DFF828940320786342469B
:10B6300060786843304401A9C0F838806078684376
:10B64000341804F13C0001F0EDF808983823242266
:10B6500004F13401C847002009B0BDE8F08F002094
:10B660007047A9E70020704770B50D46014668781D
:10B67000DFF8CC432426704320443823242234307E
:10B6800000F0E3FF40B96978714321448A6B12F1FD
:10B69000010F04BF00228A6370BD00207047E3E7FA
:10B6A00000207047F8B5044624266078DFF8503350
:10B6B000DFF8907316FB00F633440021D3F838C04E
:10B6C000002200250C267043BCF1000F38440AD03C
:10B6D00090F80AE00EF0C00EBEF1800F03D15D6B52
:10B6E00003F13C01624600892B4692B2A9DF0B2888
:10B6F00006D160787043384401230089A9DF012511
:10B7000048F2410300B11846012D17D1607870430B
:10B7100038444FF6FF7200890C21A7DF70B143F265
:10B720000201884218BF082807D043F2040188426A
:10B7300018BF112801D00020F2BD1846F2BD00202C
:10B740007047AFE72DE9F047DFF8B4828146D8F8BB
:10B750000000002890B00C4692461E4627D0189F45
:10B76000752F80F09A80684600F03BF908B101F02F
:10B7700095F800208DF800008DF8040006960597D6
:10B78000002507AAA9B208F1780000F0C7FE40B969
:10B79000082207A9484601F013F810B98DF80250A5
:10B7A00002E06D1C072DECD39DF80200FF2874D039
:10B7B000032C0AD1742F14BF402020208DF80400E0
:10B7C0009DF8040040F003005EE0DFF82832F31A31
:10B7D0001C27B3FBF7F3072B0FD204A9BAF1000F14
:10B7E000029104D1D8F87410C140C90755D5FFF7AC
:10B7F00007FE20208DF804003EE008F11803F31A3C
:10B80000B3FBF7F34BB904A80290202000F048F8EE
:10B8100009A80690182005902EE008F13407F21BC5
:10B820002427DFF8A435B2FBF7F28AB9302000F004
:10B8300037F801208DF80300987A80071CD49DF812
:10B840000100242148434044343000F0D7FA13E08B
:10B8500040228DF804200FF2A0529642B0D008EB9F
:10B860008001896DB14218D104A90291D97A884228
:10B8700004BF00208DF801009DF80400022C0CBFCD
:10B8800040F0010040F002008DF80400524604A888
:10B89000029001A96846FFF736FE10B0BDE8F087B8
:10B8A0008DF8040000208DF8010070477FB5050079
:10B8B00008BF48F20E004ED0DFF84441002020605F
:10B8C0006072A0720026FFF7A5FD242104F1340068
:10B8D00001F008F83046FFF7ACFDA119761CFF20F7
:10B8E000072E0874F6D37420ADF8040004F1780133
:10B8F0000720ADF80600DFF8D4040090684600F099
:10B90000B9FD40BB012020732878C8B90026DFF8B4
:10B91000E45002AAB1B204F1780000F0FFFD60B972
:10B920001C20704300231C2202A9284400F08DFE35
:10B9300018B9761C072EECD30DE0002121730AE024
:10B94000BDF80400BDF8061010FB01F189B204F146
:10B95000780000F0C6FE04B070BD70B500F03CF891
:10B960000E4610B948F2080070BD002C18BF002E1A
:10B9700002D03068010002D148F20E0070BD296883
:10B98000B1B92860711D281D052200F04BFF3079E8
:10B99000A872287A00F0FA0040F002002872E879D4
:10B9A00000F0FB0040F00300E8710020207070BD43
:10B9B00048F2040070BD48F20E007047B5B50100B2
:10B9C000B9B501005FB6010063B601002B7852F8EB
:10B9D0002320214668461047DFF8F4530446287BAD
:10B9E000704700B9E7E7FF21017041708170C170B5
:10B9F000002070479C2A00203146072200F012BF29
:10BA0000602B0020C42E002030B5044683B0DFF840
:10BA1000C053A1786A4605F1780000F07FFD70B947
:10BA200060781C2212FB00F028441C236946183061
:10BA300000F00BFE0FF2A032AB7AFFF7C8FF37BD64
:10BA4000602B0020C42E0020D82B0020CBC5010085
:10BA50006BC501000FB501002DE9F04F8FB0044612
:10BA6000FF20029000200790DFF86453287B002815
:10BA70001CBF286800284ED06846FFF7B2FF08B107
:10BA800000F00CFF002003900C27201D05902A20B9
:10BA9000ADF81800FF208DF8020000208DF800009E
:10BAA0000190DFF82483208810280ED0A08801AAF6
:10BAB0000221FFF7DEFC40B9019878434044C07A88
:10BAC0008DF8020001988DF801000198238895F8FF
:10BAD00009B0DFF800A30FF2103224214843019986
:10BAE000794308EB0106A97A102B28444FF01C0972
:10BAF00012D0112B40D0132B79D0142B59D0172BE7
:10BB000000F0CA80182B00F013811C2B00F0368146
:10BB1000522B00F02E8146E14FF6FF7601AA01215B
:10BB20003046FFF7A6FC0028F5D101987843404441
:10BB300002218172072211218DF8101001998DF8D0
:10BB40000110A188018102218172A11D00F06AFE0D
:10BB5000607DC10706D505EB5000007CFF2808D0AA
:10BB6000029006E0324602A9A01DFFF7ACFC0028B7
:10BB700001D100F01BF904E1B07A00F0FD000107EB
:10BB8000B07206D500060DD500216846FFF7C1FC4E
:10BB900008E09DF80200FF2804D0FFF74AFCFF20D0
:10BBA0008DF80200102001997943414488721220D7
:10BBB000E5E0F07AFF2807D1E28902A90020FFF72B
:10BBC00082FC08B900F0F2F80199019879434144E8
:10BBD00009FB00F0C97AFF2902D029181831079112
:10BBE0000AEB00020799A088002382DFDBE0132123
:10BBF0008DF81010B17A41F00401B172F17AFF2989
:10BC000025D14FF0000B09FB0BF05044817EFF293A
:10BC100008D00BF1010BBBF1070FF4D348F243003E
:10BC200003901FE03278022A06D001F0FD018176F0
:10BC30001030FFF7E1FE02E001F0FE0181768DF8A1
:10BC400008B002988DF802000298F0720AE01621FE
:10BC50008DF810103C301A2100F0D0F8B07A40F086
:10BC60004000B07200200B9008ABF07A19FB00F096
:10BC700050440C902A1D00200D900021019809FBD2
:10BC800000F0284418300890002009900A90A088FD
:10BC90007FDF0028AAD174E00BF0FE006872B07A52
:10BCA00000F0FB00B07214208DF81000A07928B1CC
:10BCB000F07AFFF7F2FBA079039062E0E079C0F33D
:10BCC000800000281CBF9DF80200FF2859D0B17ADF
:10BCD00041F00801B172E17AC1F3400139B119FBB9
:10BCE00000F10AEB0104A17E01F0FE01A176F17AD8
:10BCF000FF2946D019FB00F00AEB00043078022837
:10BD000007D004F11000FFF777FEA07E00F0FD00E1
:10BD100008E0019809FB00F02844408D2083A07EB4
:10BD200000F0FE00A07601216846FFF7F2FB28E054
:10BD3000A37996F80A90112B10D15FEA09730DD5FB
:10BD40001A213C3000F05AF816208DF8100049F006
:10BD50006000B0724BF00200687212E049F080009F
:10BD6000B07215208DF81000684652F821108847EF
:10BD700007E052F821106846884714E013208DF838
:10BD80001000039A04A96846FFF7BDFB9DF8100058
:10BD9000122808D1019878434044807A01281CBFBA
:10BDA0000198FFF737FB0FB0BDE8F08F01980299BB
:10BDB00078434044C172817A41F00801817202984F
:10BDC0008DF8020068461FE6C42E002045B701002A
:10BDD000602B00209C2A002065B6010069B6010096
:10BDE0009BB601009FB60100A1B60100A5B60100F7
:10BDF0003FB7010043B70100FFFFFFFF002200F043
:10BE000075BDFEE7DFF88009DFF88019006810F1E2
:10BE1000010F1DBF096889B2B0FBF1F04868704797
:10BE200010B5DFF86C492078142148432044011DE7
:10BE3000002000F041F9207800F009F96078401EF8
:10BE400060702078401CC0B20A2808BF0020207013
:10BE50000020BDE8104041E080B500F0A4F900F0FA
:10BE60002BF9BDE80240042038E0010009D0112878
:10BE700018BFFFF7F1BFDFF81C09C16B41F00801E3
:10BE8000C163704729DFF0E738B5DFF80409DFF850
:10BE9000FC480178142251430844051D2268E868D3
:10BEA000A9886B88401892B229699A420CD22268FC
:10BEB00092B29B1A22681204920C19441818FFF7C8
:10BEC000E1FF206880B203E09A08FFF7DBFF688893
:10BED000DFF8C018486331BD28DFC6E7DFF8B418C3
:10BEE000DFF8AC280870032800D9704738B5DFE8C0
:10BEF00000F035320602C86ABDE83240ECE7C86B94
:10BF000040084000C8631424137863431A44121D88
:10BF1000DFF87848D3682568ADB2B3FBF5F5CD629C
:10BF200052889A182368521E9BB2B2FBF3F29542D4
:10BF30000EBF40F002006FF002021040C863486A72
:10BF400028B991F83C00800758BF022000D5002096
:10BF5000BDE8324072E0BDE8314095E7002008635B
:10BF60004863507800281CBFBDE8314000F041BA5A
:10BF700031BD80B5FFF746FFDFF810180A68096881
:10BF8000401E92B2504389B2B0FBF1F0BDE80240CE
:10BF9000A2E770B5DFF8F44725682668FFF732FF9F
:10BFA000216800F031F8C96A2D04B6B2AA0C7143B9
:10BFB000BDE8704066E7DFF8DC07C06A8CE72DE972
:10BFC000F041DFF8CC07DFF8C47701781422514341
:10BFD0000844041DE5683E686088A188281800EBC5
:10BFE0000108FFF70FFF396800F00EF8A3888A6A8E
:10BFF000B6B24044B8FBF6F106FB11016088281880
:10C00000BDE8F041C0183DE7401E89B24843DFF863
:10C010008417704780B5FFF7F5FEDFF87027DFF86B
:10C0200074371168401E89B2414310685A6ADB6A4E
:10C030005B1E80B25843BDE8084023E7DFF8541781
:10C0400048700FF25470497850F8210000471422CC
:10C05000DFF83C175043084400210171C1800221E0
:10C06000C16000210161416101817047F8B5DFF8CD
:10C07000204765780A2D1DD02678AD190A2D28BFD6
:10C080000A3D14267543254428716A61D1E9006789
:10C0900005F10C00C0E90067EB8006982881607804
:10C0A000401C6070DFF8EC06007808B900F0A1F9D8
:10C0B0000020F2BD0420F2BD70B5DFF8D8560C4662
:10C0C00082B0A96B009102462369217804F108002F
:10C0D000A4680C2674432C446468A04773BDDFF841
:10C0E000B00601781422514308440079042818BF8F
:10C0F000FFF796BE0120F1E6DFF8940601781422DE
:10C1000051430844DFF884160968001DC26843885B
:10C110008088D2181018401E89B2B0FBF1F0DFF809
:10C120007416CA6A824205D306D1886A401E8041CD
:10C13000C00F70470120704700207047DFF8540699
:10C14000C16B6FF008021140C163407876E738B5E3
:10C15000DFF84046E06B010724D400F024F8CA68F9
:10C160004B888988D2185118DFF820261268A56AF2
:10C17000491E92B2B1FBF2F14DB1E26A8A4206D198
:10C1800040F00100E06300216162002008E0FFF759
:10C19000B3FF18B100206062022001E00DB103205E
:10C1A00036E02FE031E0DFF8E8150A7814235A432F
:10C1B0001144091D7047DFF8DC0590F83C000007CA
:10C1C00058BFFFF78CBFB9E738B5DFF8C845E56B56
:10C1D000280716D4E06A401CE062606A08B10420B7
:10C1E0000DE0FFF789FF08B1022008E0A06A38B12E
:10C1F000E8075DBF45F00100E0630020032007E091
:10C2000000E002E0BDE8314069E7BDE8314095E774
:10C21000BDE8324012E7DFF87C05C16B0A0748BF72
:10C22000FFF78CBF8A0744BF41F00101C1630220C0
:10C2300004E7DFF8600590F83C0000075CBF0120D0
:10C24000FFF7FCBE7AE7DFF84C05C16B6FF0080220
:10C250001140C163007841E680B5DFF83805027807
:10C26000C16B012A04D036D3032A1BD02BD301BDC6
:10C27000090714D4DFF81815406B0A7814235A43C1
:10C280001144091D4A88101A488080B2002804BF52
:10C29000BDE80140FFF7C4BDBDE80140F4E5BDE8DD
:10C2A0000140D0E70907FAD4C16A491CC162FFF70F
:10C2B00023FF002804BFBDE80140FFF710BFBDE821
:10C2C000024003200AE60FF2E441407851F82000D2
:10C2D000BDE80240004701BDDFF8B82411780B002B
:10C2E00018BF042917D0022814D0032813D192F8BC
:10C2F0003C0000070ED4106B401CB0F57A7F106331
:10C3000006D002291CBF0846FFF7E8BD507895E625
:10C310000D20A1E5A0E770472DE9F0410C24DFF8DE
:10C320007004017814225143DFF868240844001D8A
:10C330004FF000088368C168634313449C89DD891A
:10C340006C439D68DFF844341E68B0F802E0B6B272
:10C35000B1FBF6F706FB1716771E8688C2F8288011
:10C36000BF41641901EB0E05FF0F35443FB11F6853
:10C37000BFB2BE4506D0A54208BF002E02D08068DD
:10C38000032806D1186880B2B1FBF0F0D062032018
:10C390002CE01868314480B2B1FBF0F600FB1610B7
:10C3A00080085062186880B2B5FBF0F100FB1150B4
:10C3B000002818BFA54218D018681968ADB2A4B2F9
:10C3C00080B289B294FBF0F095FBF1F1884208BF8E
:10C3D000601B08D01868196889B280B2401B95FBB1
:10C3E000F1F301FB0300800890620220BDE8F041F8
:10C3F00074E5DFF89C030178142251430844001DC2
:10C40000DFF89023418891630078012804D0032845
:10C4100018BF042801D0704760E57DE710B5DFF84C
:10C4200070030021018000242046FFF710FE641CE9
:10C430000A2CF9D3DFF85C430020A083FFF7E2FC6D
:10C44000DFF848130968C01E89B248432062002201
:10C450000020E0620C2141432144401C02284A6034
:10C460008A81CA81F6D30420E0632270226362636A
:10C47000002010BDF8B5C74E044696F83C004007B2
:10C480000D4601D40820F2BD002C18BF002D01D0AC
:10C49000206808B90E20F2BDBC4F3868A18880B270
:10C4A000884214D3102912DBE08880B1FFF7AAFC80
:10C4B0003968401E89B201FB00F2A188306AE38826
:10C4C00001FB03039A4202D30322114201D0072049
:10C4D000F2BDB28B1346022B01D10420F2BD2A60BB
:10C4E00068600C256B4333449860256899815D60D2
:10C4F000E188D98139683B683D68A788E4887C4336
:10C5000014FA81F1491E9BB291FBF3F1ADB205FB28
:10C5100001003062501CB0830020F2BD30B59D4C4C
:10C5200094F83C305B0701D4082030BD002818BFC8
:10C53000002A01D10E2030BD0368022B0FD20C253A
:10C540005D432C44656855B14068A58905FB010031
:10C55000A168E589A48904FB0511884201D307205D
:10C5600030BD13605060002030BDF8B500F065F8B4
:10C5700001D40820F2BD002918BF002801D10E20E7
:10C58000F2BD0568022D0ED20C26754325446C6859
:10C590004CB100F04AF806D2150004D0964202D3FE
:10C5A0009D18AE4201DA0720F2BD11F0030504BF69
:10C5B00013F0030514F0030405D1009313460A4653
:10C5C000014601203EE01020F2BDF8B500F035F83C
:10C5D00001D40820F2BD002918BF002801D10E2087
:10C5E000F2BD0568022D0ED20C26754325446C68F9
:10C5F0004CB100F01AF806D2150004D0964202D3CE
:10C600009D18AE4201DA0720F2BD11F0030504BF08
:10C6100013F0030514F0030405D1009313460A46F2
:10C62000014604200EE01020F2BDAE89AF68ED890E
:10C63000446806FB0575AC427047564C94F83C5074
:10C640006D077047FFF712FDF2BD2DE9F041DFF8ED
:10C650004481054698F83C00400782B00E4658BF1A
:10C6600008203CD5002E14BF002D0E2037D0306896
:10C67000022818D20C27784308EB000CDCF80400E1
:10C6800088B1DCF808E0BCF80C40BCF80EC070685B
:10C69000214601FB0CEC604505D222B1944202D345
:10C6A0009C18A14201DA072019E015F0030104BF2C
:10C6B00013F0030110F0030110D1C11814462846ED
:10C6C00000F0B0F800942B4634687C4344440022C8
:10C6D000646802213046A047002000E01020BDE839
:10C6E000F68170B52B4A92F83C305B0782B001D4DA
:10C6F000082076BD08B90E2076BD0368022B2AD229
:10C700000C2463431A4453682BB39468D5899689E3
:10C71000436806FB0544A3421DD213F0030411D164
:10C7200094681C1B3546B4FBF5F605FB1644002C3B
:10C7300002BF91FBF5F405FB1414002C0BD10C0087
:10C7400002D108E0102076BD9468D28902FB054230
:10C750005B189A4201D2072076BD00220B46009258
:10C7600001460320FFF782FC76BD0A4991F83C1090
:10C77000490701D40820704708B90E2070470449C2
:10C78000497801600020704714100010100000105C
:10C79000D0290020742D002073BF010093BF010039
:10C7A000B7BF0100BFBF010015C0010033C20100C7
:10C7B00017C20100C9C10100B7C101004FC101008A
:10C7C0000300002013F0030F09D0521E22BF13F8FC
:10C7D000010B11F801CBB0EB0C00F3D07047121F26
:10C7E00022BF53F8040B51F804CB6045F7D0121D5B
:10C7F0000AD200BA9CFA8CFCB0EB0C0038BF6FF088
:10C80000000088BF01207047521E22BF13F8010BA1
:10C8100011F801CBB0EB0C00F6D0521C08BF10464B
:10C820007047FEE762B38B0708D0521E11F8013B38
:10C8300000F8013B00F024808B07F6D1830740F01D
:10C84000208000BF103A07D330B4B1E83810103A56
:10C85000A0E83810F9D230BC530724BFB1E8081063
:10C86000A0E8081044BF51F8043B40F8043BD2074D
:10C8700024BF31F8022B20F8022B44BF0B78037041
:10C880007047083A07D3B1E80810083A40F8043B6B
:10C8900040F804CBF7D25307E4E7FEE710B584B0C5
:10C8A00069460022002300241CC100F003F800F0B8
:10C8B00007F81FBD02906A46002144F2010070474C
:10C8C000BFF34F8F0548064A016801F4E061114348
:10C8D0000160BFF34F8F00BFFDE700000CED00E0EB
:10C8E0000400FA05002200F031B8FEE7401810F00D
:10C8F000030308D0C91A1FD3DB0748BF00F8012D76
:10C9000028BF20F8022D130030B414461546103904
:10C9100028BF20E93C00FAD8490728BF20E90C00CD
:10C9200048BF40F8042D890028BF20F8022D48BFD9
:10C9300000F8012D30BC7047C91818BF00F8012D50
:10C94000CB0728BF00F8012D7047FEE700B500BFF8
:10C95000130096469446103928BFA0E80C50FAD828
:10C960005FEA417C28BF0CC048BF40F8042BC907D0
:10C9700028BF20F8022B48BF00F8012B00BDFEE7BE
:10C98000012100F01F029140DFF8282605E0012177
:10C9900000F01F029140DFF82026400942F82010E5
:10C9A0007047012100F01F029140DFF81026F4E7E4
:10C9B0004901002807D5DFF8082600F00F001044D1
:10C9C00000F8041C7047DFF8FC2511547047000084
:10C9D000401E00BF00BF00BF00BF00BF00BF00BFC0
:10C9E00000BF00BF00BF00BF00BF00BF00BF00BF4F
:10C9F00000BF00BF00BF00BF00BF00BF00BF00BF3F
:10CA000000BF00BF00BF00BF00BF00BF00BF00BF2E
:10CA100000BF00BF00BF00BF00BF00BF00BF00BF1E
:10CA200000BF00BF00BF00BF00BF00BF00BF00BF0E
:10CA300000BF00BF00BF00BF00BF00BF00BF00BFFE
:10CA400000BF00BFC4D1704710B5DFF87C15DFF818
:10CA50007C454FF4003008604FF48031DFF87005FA
:10CA6000016401600120206000F01FF90120606076
:10CA70000020DFF86045206100F017F90020E07029
:10CA800010BDF0B5DFF84C05C168027813465A1E98
:10CA9000002B46D08368D2B203EBC2031C781BE0A4
:10CAA0003546F669C6B1BE42FAD1B54202BFDCF8DE
:10CAB0001C70C760002F08D1DFF81CC50127CCF817
:10CAC000007000270761012707713768F669EE617A
:10CAD00016B135687D193560E5B25E78B542D5D0BE
:10CAE0005D68E4B2182616FB04F63544641C9F7892
:10CAF000E6B2BE422E7808BF0024022E02D0032EDA
:10CB000006D0E9E76F68D0F80CC065462E46C9E745
:10CB1000C568002D1FBF00262E74ED69C560F7D1D2
:10CB2000DAE7C068884214BF01200020F0BDF0B5EC
:10CB3000DFF8A014CA680B781C46631EDBB234B958
:10CB4000C868904214BF01200020F0BDCC6098BBA3
:10CB50008C6804EBC30425786678B542ECD02E4689
:10CB60006568182717FB06F7761C3D442670F6B259
:10CB7000A778BE4204BF002626702E786C68012E6E
:10CB800004BF267C002EE3D1AE686660EE68A66026
:10CB90002E69E6606D69A5610D790DB100256560AE
:10CBA0000D696668DFF834C4771B27F07F47674557
:10CBB00005D2A568ED190AE00446E069F0E7AD1B6F
:10CBC000A66825F07F45B54234BF751B002525605A
:10CBD00000256560A560012525740025E561CD6807
:10CBE000002DB3D02E682768BE4203D3F61B2E60FB
:10CBF000E561ABE72E46D6F800C0BC4506D2354607
:10CC0000F669002EA7EB0C07F5D103E0ACEB070C9F
:10CC1000C6F800C02760E661EC6198E72DE9F843AB
:10CC2000DFF8B043E06800283AD0D0F80080DFF8A1
:10CC3000B0532E682769F01B20F07F4000F10309F4
:10CC4000E07898B9DFF89C034FF48031016401600B
:10CC50001120FFF7A6FE1120FFF792FEDFF88813E0
:10CC60000120086000F021F80120E070C14538BFC4
:10CC7000C14609EB070020F07F40E863801B29686C
:10CC8000891B21F07F4120F07F40C91C88420AD2D5
:10CC90002868E86300F009F8BDE8F243112076E661
:10CCA000BDE8F143D0E6BDE8F1832F2090E62DE901
:10CCB000F047DFF82063B37830697178D6F80C80DC
:10CCC0000025994281460A460DD0521CD2B2022A52
:10CCD00008BF002206EB820101274C69201820F0D2
:10CCE0007F40306101E0002400277270FFF7C9FE29
:10CCF000F1688246DFB1002310E0241AC318002037
:10CD000010600846D169D76847B103EB090E2EF0D1
:10CD10007F4EC2F804E09760D561054629B10A4606
:10CD200010688442E9D2001B10604FF0010AF160E4
:10CD30002846FFF7FCFE00280EBFBAF1000F404660
:10CD4000FFF76CFF00203071BDE8F08710B5427826
:10CD50008478521CD3B2A34208BF00220478D3B215
:10CD6000A34201D1002010BD0A701822416840780A
:10CD70005043084410BD2DE9F041964F8046B868F5
:10CD800082B00C4615461E46694600EBC800FFF708
:10CD9000DDFF08B9042011E00121017044609049D1
:10CDA00009688160C560066108994161B8689DF8AD
:10CDB000001000EBC80000F0FAF80020BDE8F68192
:10CDC000F8B58A48834C0021016441648164C164E0
:10CDD00001604160E6689EB3814800682169401A9D
:10CDE000002520F07F473068874216D33F1A451947
:10CDF0003046F669017C71B1002101744269816994
:10CE0000E369180005D01046984720B1FFF746FDAA
:10CE100001E008469047002EE5D1A0786178814274
:10CE200001BF401CA070C0B2022804BF0020A07047
:10CE3000A07804EB800045611420BDE8F240A6E52F
:10CE4000F1BD34E72DE9F0410546174617F0030020
:10CE50000E46984602D15F4C17B9A06007202DE01E
:10CE6000FFF7F2FD03202070A760C4F81C8018377C
:10CE700000200022A16801EBC0010A704A708E7088
:10CE80004F601821401C11FB06F103280F44F1DB11
:10CE9000E2606270A2701420FFF783FD032114206A
:10CEA000FFF786FD1420FFF76BFD4D4E03217560E3
:10CEB0001120FFF77DFD306820610020BDE8F08182
:10CEC000444B9B6843B1130018BF002801D10720D1
:10CED00070470068037C0BB10820704703744174ED
:10CEE00042610020704742480068C0F308000028F3
:10CEF00016D0103840B2002806D5314900F00F0096
:10CF0000084410F8040C01E02E49085C400901288F
:10CF100002D0032802D003E00020704701207047B0
:10CF200002207047F8B504462A488068002818BFD8
:10CF3000002C0D46164605D0052D01D20720F2BD66
:10CF4000606908B90820F2BD607C01280CBF2F463B
:10CF50000027FFF7C8FF00963B462A462146FFF709
:10CF60000AFFF2BDF8B51B4DAE680446002E18BF8F
:10CF7000002C01D0606908B90820F2BD002020749F
:10CF8000FFF7B1FF0746694606EBC700FFF7DEFE75
:10CF900008B90420F2BD022101704460A8689DF820
:10CFA000001000EBC70000F002F80020F2BD417055
:10CFB0001420ECE400E100E000E200E080E200E0A8
:10CFC00018ED00E000E400E080E100E00410014022
:10CFD00008130140702E002008100140FFFF7F0061
:10CFE00004150140041301400010014000110140EC
:10CFF00004ED00E00870000A48700220704730B568
:10D000000D4683B0044628880930824201D20C20A4
:10D010003EBD684671DFE8B92988082060541B21AD
:10D020002888401C2880062280B221540DF101017D
:10D0300000F07EF92044FFF7F5FB2888801D28804A
:10D040009DF8002002B1012280B222542888401CA1
:10D05000288000203EBD70B5054682B028780C4679
:10D06000012804BF6978002901D1072076BD118805
:10D070008E1CB3421FD3012804D168780818801C85
:10D08000834218D3581A831EADF8003069461088C1
:10D090002044801C7DDF68BB297802290FD1BDF8B0
:10D0A000001098B2884208D20820ADF80030BDF8D0
:10D0B0000010FF290ED30C2076BD0920F7E70820C9
:10D0C0000129F2D16E7899B2B14288BF3146ADF8EC
:10D0D0000010ECE71388491CE1541188491C1180A9
:10D0E00089B260541088401C1080BDF800100818E8
:10D0F0001080002076BD2DE9FC470A9E0B9C3788E6
:10D100004FF0000E054688469146F24606E030880C
:10D110009DF80010401830800AF1010A28888245E5
:10D120002DDA686850F82A0001900022694601A8AB
:10D1300065DF88BB9DF800004845EDD1BEF1000FCA
:10D1400031889DF8002014BF0020022052181018CA
:10D1500084421DDBBEF1000F09D1481C30804FF026
:10D16000010E80B203F800803088401C3080694690
:10D1700030881A1801A865DF0028C8D00CE0BEF17D
:10D18000000F08D03088C01B401E80B2FF2801DD90
:10D190000C2001E0D8550020BDE8F6872DE9FC41C0
:10D1A000089F099C0194164605469846009702225E
:10D1B000FFF7A1FF38B9019400974346102231468A
:10D1C0002846FFF798FFBDE8F681F8B514460546F6
:10D1D00020880E46811D8B4201D20C20F2BD298889
:10D1E00006290EDB40F68147B9424FF6FF7301DB9B
:10D1F000994206D16A88062A03DBBA4203DB9A42C7
:10D2000005D00720F2BD994201D08A42F9D3052109
:10D21000315412212088401C208080B23154208853
:10D22000401C208080B231182888FFF7E3FE218857
:10D230000818208080B231186888FFF7DBFE21884B
:10D24000081820800020F2BD70B5044616460D4631
:10D25000A0883188801C4218921C934201D3FF2879
:10D2600001D30C2070BD401C6854FF213088401C45
:10D27000308080B229543088401C308080B2291818
:10D280002088FFF7B7FE318808183080A288110087
:10D290000BD0A16809B9072070BD80B22844FFF700
:10D2A000C1FA3088A18808183080002070BD2DE9AF
:10D2B000F04100F128080C46D8F80000154690B35C
:10D2C000002708E080B22044FFF7ACFA2888B18834
:10D2D000081828807F1CF8B298F80410884224D2DD
:10D2E000D8F80000FFB20C2111FB07F14618B088F6
:10D2F000801CFF2801D30C2018E02988401C6054B2
:10D30000162100F015F8215400F012F82118308889
:10D31000FFF770FE298808182880B2881100D9D03C
:10D32000B1680029CED1072000E00020BDE8F081DF
:10D330002888401C288080B2704700002DE9F04307
:10D34000174683B005463C88002005F12C090E469F
:10D350003880D9F8081061B10978032C10D3022263
:10D360003270112300F0ECF892B2B1543988491CA4
:10D370003980D9F80410B1B13A8802F112039C4205
:10D3800076D31123B354102300F0DAF80F22B7F844
:10D3900000C08B5C06F80C30521E3B8852B25B1CFE
:10D3A000002A3B80F3D599F802100A0020D0388873
:10D3B000C21C94425CD3022232541C2200F0BCF8FE
:10D3C000491E80B232543888401C0329388023D843
:10D3D000DFE801F008060402032104E0022102E074
:10D3E000012100E0002180B2315400F0A5F80020B6
:10D3F00099F8011031B1224639463046FFF7FFFD5A
:10D40000002808D1A978C9B13888001D84422FD3DB
:10D41000684679DF10B189E0072087E0398803206A
:10D420007054192100F095F880B23118BDF8000051
:10D43000FFF7E0FD3988081838800020E9780A00F5
:10D440000ED03888C21C944249B211D30222325401
:10D45000012200F071F880B2325400F07AF8002016
:10D460006968B9B191F900003988CA1C944201D2A7
:10D470000C205BE0022272540A223988491C398050
:10D4800089B272543988491C398089B2705400F0CD
:10D4900053F80020298951B10194009733460622A0
:10D4A000022105F10800FFF779FE00283ED1298A04
:10D4B00051B10194009733460722032105F1100072
:10D4C000FFF76CFE002831D1298B49B101940097F8
:10D4D00033461522142105F11800FFF75FFE28BB23
:10D4E000D5F82080B8F1000F05D000F021F84046B3
:10D4F000FFF76BFED0B9D5F82480B8F1000F05D046
:10D5000000F016F84046FFF79FFE78B999F8001032
:10D5100029B100F00DF82846FFF7C9FE30B9297887
:10D5200021B100F005F82846FFF795FDBDE8FE8320
:10D5300023463A46314670473888401C3880704749
:10D540003A88521C3A8092B2B3543A88521C3A80BC
:10D5500070473888401C388080B231543888401C6D
:10D560003880704730B591B00C461F21ADF80210DD
:10D57000ADF8001050B1C17849070DD50DF1020288
:10D5800009A9FFF7DBFEE0B909AD02E00025ADF81F
:10D5900002005CB1E07808B1072012E06A4601A9F8
:10D5A0002046FFF7CBFE60B901AA02E00022ADF8E9
:10D5B0000000BDF80030BDF80210DBB2C9B2284649
:10D5C00072DF11B030BDFEE704280BD2DFF8A423D0
:10D5D0000FF2CC33126853F82000D243C24002F05D
:10D5E000010000E000200870002070472DE9F041A4
:10D5F0008046002400200FF2A83252F82030434524
:10D6000002D0401C0428F8D304282ED2DFF8686327
:10D6100000EB4002B7183518A1B102291BD01BD26C
:10D620003C78787858B170690A21414306F10D02BF
:10D6300006F16400FFF776FC08B986F80D80B8782B
:10D64000287409E006F16400FFF78CFCBC78287CA4
:10D65000A0420AD100E07C78200006D0316A0800A0
:10D6600003D02046BDE8F0410847BDE8F0810078CE
:10D670000221BBE72DE9F041BF4DC04EE9690446E8
:10D6800000206FEA01086969172C08F4E01E01EB1D
:10D6900081034FF4F0174FF4003212D8DFE804F0A2
:10D6A0000C121228313F4F5D646E646EC77E7E7E21
:10D6B0007E7EA6AAB2BCC7C708F4F0117160B06044
:10D6C0002873B7E0C6F804E0B0602046336883F4FE
:10D6D000F0139B0306D572600022022CB26017D1B2
:10D6E000122028E0B2600022022C726023D014E0E5
:10D6F000C6F804E000F0A4F819D500F09DF8082061
:10D7000019E0C6F804E000F09BF803D500F094F8A7
:10D71000282010E0B2600020706004200BE0C6F802
:10D7200004E000F08DF802D500F086F802E0B26067
:10D730000020706002202C730022414328E0C6F8CC
:10D7400004E000F07DF802D500F076F802E0B26067
:10D7500000207060062028730EE0C6F804E0B06078
:10D76000B2607060072160E03068C24302F480223A
:10D77000726000F48020B060002209E03068C1438C
:10D7800001F48021716000F48020B060002219460D
:10D7900005F12400BDE8F041FFF7C4BB05F14400EA
:10D7A000FFF7E0FBD4F1110118D0B8B94FF4002213
:10D7B0000229EA610BD3C823594368696423B1FB8A
:10D7C000F3F14143002205F14400FFF7ABFBE969A7
:10D7D00001F4F011B160002171602BE0E96901F4FE
:10D7E000F01171600021B160E96123E07760B06001
:10D7F00012211AE04FF4E0117160B060B260706005
:10D80000132112E04FF4D0117160B0604FF4802109
:10D81000B1607060142108E04FF4C0117160B06015
:10D820004FF4C021B16070601521297302E0B76028
:10D8300070602C73BDE8F08172600020B0607047AA
:10D84000B060306880F4F010800370474A48017E71
:10D85000C90744BF007BFFF70DBF70474748016809
:10D86000CA4302F40022426001F400218160704743
:10D87000414A127E01460020D20744BF0846FFF706
:10D88000F9BE704770B50D463B49044600204D6116
:10D890008C610A62A1071BD50026012201213046B6
:10D8A00000F030F8761C042E01D20028F5D028B9FB
:10D8B0006A0804210FF2F80000F0E4F808B900F05B
:10D8C00014F928B92E4A0FF2D4000021FFF7F8FA14
:10D8D000E10706D52B494FF4F0120A6000234B6094
:10D8E0000A6128B90021284A0FF2A800FFF7E8FAD8
:10D8F00038B9BDE87040254A0FF29C000121FFF7BE
:10D90000DFBA70BD10B50023042814D2012A04D157
:10D9100001290CBF00F10D020022174C00EB400062
:10D92000204431B1022902D005D2027004E04270D5
:10D9300002E0827000E00723184610BD70B5002198
:10D940000FF25C02124B52F8214053F8245020FA97
:10D9500001F6F6074CBF0326002625F4403545EABC
:10D960000645491C43F824500429ECD3002070BD1F
:10D970000000000010050050F82B002004050050A6
:10D980006FD60100080500504DD801005DD8010098
:10D99000000700501C2C00203C2C00205C2C002098
:10D9A0000D0000000E0000000F000000100000003D
:10D9B0000D000300EDD501000E000300EDD50100C0
:10D9C0000F000300EDD5010010000300EDD50100AC
:10D9D000F8B5002601244D4D07E051407A6881F0EA
:10D9E0000101130018BF9047761C2978F0B28842D5
:10D9F0001FD268682969F6B200EBC60797F90000E4
:10DA000004FA00F00842EFD021EA000028613878DB
:10DA100000F0B8F901463878EA6804FA00F31A40D1
:10DA200001FA00F39A42DFD17A78012A18BF002266
:10DA3000D3E7F1BDF8B50546012000FA05F6334CF1
:10DA400004F11400FFF78EFAD8B92069F743304289
:10DA500015D1284600F096F9E168002814BF46EA7F
:10DA6000010007EA0100E06000222069A16830435C
:10DA7000206104F11400BDE8F840FFF753BA3840C4
:10DA80002061F1BDF8B51646052E04460D4601D2BB
:10DA90000720F2BD00F0E0F810B900F0B8F818BBAC
:10DAA0001A480FF278078660002144600570C16053
:10DAB0000161174E2846451E80B138680090EDB2CE
:10DAC00004EBC500324680788DF80100694614F8F1
:10DAD000350000F0CDF80028ECD0F2BD0D4A0FF271
:10DAE00038000021FFF7ECF9F2BD38B50024074DEE
:10DAF00006E0686810F83400012100F004F9641CA5
:10DB000028788442F5D3002032BD0000EC2D00209F
:10DB100035DA0100D1D90100002E002003000000F9
:10DB200000F1804000F5C0400068012818BF0020C7
:10DB3000704700F1804000F5C04081B000210160D5
:10DB400000680090009801B0704741EA420141EA44
:10DB50008302009942EA0122019942EA0141DFF879
:10DB600024230BE0DFF81C2352F8203023F4403349
:10DB700042F8203052F8203043EA014142F82010A8
:10DB80007047DFF80413084490F9300008288041FA
:10DB9000C00F7047DFF8F012084490F930000828F1
:10DBA000ACBF012000207047DFF8DC12084490F978
:10DBB0003000C043C00F7047F0B514004FF0FF3382
:10DBC00007BF08240C2500240825DFF8BC6200E00C
:10DBD000641CAC420DD256F824709F42F8D1331821
:10DBE00083F8304046F8241012B9311981F8480002
:10DBF000234658B2F0BDDFF890124FF0FF3241F8E3
:10DC000020200828A4BF081880F84820704738B59D
:10DC1000DFF8744294F8540008B1082032BD4FF088
:10DC2000FF312218401C202882F83010F9DB002533
:10DC30002846FFF7E0FF6D1C0C2DF9DB03210620C1
:10DC400000F02CF9DFF844124FF00040086001208A
:10DC500084F85400002032BDDFF82C0290F8540004
:10DC600000B101207047DFF820020519204688E73F
:10DC7000F0B583B005460F461646FFF795FF002422
:10DC800008B108243DE0FA7831462846FFF794FFB2
:10DC9000064616F1010F33D0B87840B1794850F8F4
:10DCA00025106FF00202114040F8251007E00190A6
:10DCB000009000227B7800212846FFF746FF397844
:10DCC000F87898B17248734B50F826201A4040F803
:10DCD00026202B02090450F8262003F4F85301F4FF
:10DCE00040311943114340F826100AE06648821972
:10DCF000304492F8482042EA811180F8481000E050
:10DD000004242046FEBDF8B50E4604465E4DFFF7DE
:10DD100041FF2F19B8B197F93000284490F9480015
:10DD20000006800F032805D15B480068E040C0076B
:10DD300002D503E0012801D1022100E003212046A1
:10DD4000BDE8F4400EE7FFF791FFD0B197F93040FE
:10DD50004F4850F8241041F0010140F82410A00071
:10DD600000F5807000B2FFF7E4FE002E1EBF97F9A9
:10DD7000300055F82000002803D001204349A0407E
:10DD80000860F1BD44490968C14001F001007047D5
:10DD90002DE9F8430027B8464FF480750124082682
:10DDA00028B2FFF7BDFE00281EBF38480068204299
:10DDB00003D028B2FFF7BDFE274364002D1D761E59
:10DDC000EED14FF4BE70FFF7ABFE40B14FF4BE7022
:10DDD000FFF7AFFE3048D0F8008047F00047380624
:10DDE000294D14D00124DFF8A8903C420BD059F8FB
:10DDF000260059F8261055F82620090C01F00301D9
:10DE0000C0F3042090476400761C082EEDD3002F49
:10DE100034D50026A81990F9500010F1010F2AD02E
:10DE2000C0B26FF0C00101EA0007E91991F93010A2
:10DE300055F82140FCB1800900F00309114850F861
:10DE400027000121B940000C11EA080F00F003007F
:10DE500002D002280FD101E003280CD1B9F1030F41
:10DE600006D102280CBF032102213846FFF77AFEB3
:10DE700049463846A047761C042ECBD3BDE8F18333
:10DE80000000000000070050DC2C0020046300406C
:10DE900010650040FFE0FCFF1005005010B549017F
:10DEA000020006D50A4B00F00F04234403F8041CBB
:10DEB00001E0084B19544109012200F01F0002FA49
:10DEC00000F0054A42F82100044A42F8210010BD42
:10DED00018ED00E000E400E080E200E000E100E096
:10DEE000DFF8A813085800B10120C0B2704710B580
:10DEF0000001DFF89C331C186260195010BD01004E
:10DF000003D0092801DA012070470020704710B5BE
:10DF1000DFF8802392F82830012404FA00F0002969
:10DF200014BF184323EA000082F8280010BD10B582
:10DF30000446FFF7E4FF50B1DFF85803012190F8E1
:10DF40002800621E9140084201D0012010BD00202F
:10DF500010BDFEB54FF48270FFF7C2FFDFF8344307
:10DF6000DFF82853DFF83073002804F1270659D072
:10DF700000203860F278E0686168012A0BD100F077
:10DF800082F808B9307014E06060A08A2081E260F5
:10DF9000012028600DE06289521C62816289238918
:10DFA0009A420AD100F06FF8327010B1A18A00F0E5
:10DFB0000CF921686846884734E0B07800220021D7
:10DFC000FFF795FF61686289DFF8D00201EB42013B
:10DFD000016001214160B078401CB070B078082821
:10DFE0000CDA04EB40018A7D002AF5D0CA7D897DD8
:10DFF000FFF77DFF012028606860F7BD002004EB7B
:10E000004001897D09B1B07003E0401CC0B208280E
:10E01000F5DBB07804EB4001CA7D897DFFF767FF2F
:10E02000012028604FF48A70FFF75AFF18B10020D2
:10E0300038613070F7BD266922E0B6FA86F04FF0FD
:10E040000041C140800000F58C773FB28E433846D6
:10E05000FFF746FFA0B10020E85101208DF8000035
:10E06000A7F58C70C0088DF804003F06B80E00F0CC
:10E07000010080F001008DF805006846216888479E
:10E08000002EDAD1F7BD002201918DF80020218900
:10E09000ADF80810704710B57E4A02F126031C78CF
:10E0A0000CB1082010BD0C0001D1072010BD08B92B
:10E0B0000FF200201160047879490C6044784C60BC
:10E0C0000021997001211970002159701971518135
:10E0D000116181780720FFF7E1FE72490220086094
:10E0E000012071490860002010BDF8B5694F07F1A3
:10E0F00027060446307801280D4601D11120F2BDD3
:10E10000A879FFF714FF18B9E879FFF710FF08B1F5
:10E110000420F2BDA879FFF7F2FE10B1A87900F053
:10E120001AF8E879FFF7EBFE10B1E87900F013F880
:10E1300007EB4400817D11B9F178491CF170A97990
:10E140008175E979C1752046294600F0B5F800F0DF
:10E1500006F80020F2BD401E0121C0B2D7E6002221
:10E1600000212046C3E6F8B54A4D044695F827003D
:10E1700008B11120F2BD012085F827000220494E88
:10E180004A4F7060454801600121416005EB440041
:10E19000C27D817D2046FFF7AAFE3C480121016037
:10E1A000416000E07F1E4FF48270FFF799FE08B9CE
:10E1B000002FF7D1384900200860FFF7D0FF022078
:10E1C0003060002085F82700F2BD2DE9F843354D79
:10E1D000DFF8C0C0314FDFF8D8800CF127060222EB
:10E1E0006A600CF104023378012B0C46814619D188
:10E1F00093681BB102202860112044E090601182D6
:10E20000F07801280BD14FF48070FFF769FE0028E9
:10E21000F9D00020C8F80000C7F800907C60022008
:10E2200028602FE002232B60012333700823B37092
:10E2300000230CEB4305AD7D0DB1B37003E05B1C17
:10E24000DBB2082BF5DBB378082BA8BF08201ADA5D
:10E25000106091800020D08090600CEB4300C27D64
:10E26000817D1846FFF743FEF078C7F8009001283B
:10E270000EBF7C60012078600020C8F800000120FB
:10E28000024908600020BDE8F283000000700040F1
:10E2900010750040202E0020047100402C760040B4
:10E2A000F07500400473004000750040A086010036
:10E2B0000071004001000300124A4B7802EB00108D
:10E2C0000A781B0102F0030203F030031A438B7833
:10E2D0001B0203F4E0631A43CB781B0303F480535F
:10E2E0001A430B791B0403F4E0231A434B791B05F3
:10E2F00003F480131A4382608A79C979416002600D
:10E30000704700BF107500400179002906BF007BEF
:10E310000028012070470721DFF8A403FEF7E2BAC6
:10E320000021425C0AB101207047491C0629F8D33C
:10E3300000207047F8B50D460400114618BF0029AB
:10E3400001D10E20F2BDDFF87C630020B07633628D
:10E35000242206987062DFF87003FEF773FAFFF765
:10E36000DAFF06F128003060382106F14800B0607D
:10E37000DFF858633046FEF7B5FA20783070A078A1
:10E38000B070E078F07060787070D4E90401C6E98C
:10E390000401D4E90201C6E90201D4E90601C6E993
:10E3A0000601626ADFF8280300F140017AB1716268
:10E3B0008860626A13880B80002392888A8004E058
:10E3C000676ABF68FF5CC7545B1C9342F8D3A26ABC
:10E3D000D2B100F120024A6100F14C02B262A26A9D
:10E3E00093880B8212888A81002206E0A36A9B68C8
:10E3F0009B5C8718521C87F820300B8A9A42F5D311
:10E4000094F82C2086F82C20226A3AB100F15802A8
:10E410003262226A53884B8312880A83616819B179
:10E420005C3070606068706029463046BDE8F4403A
:10E43000FFF798B870B5A34CA07688B00020009084
:10E440006846FEF792F9082815D100200090FFF7E2
:10E4500062FF9D4DA07E697809B1012803D0A9789B
:10E46000A1B1022812D1216A08000DD001206077E5
:10E47000082088470AE0002840F0AB800098002878
:10E48000E5D001202076A3E000206077A67E012E53
:10E4900009D1687820B104F11100FFF741FF10B9EC
:10E4A0000220A07601E0022E08D1A87820B104F164
:10E4B0001100FFF735FF08B90320A076287B00285C
:10E4C00001BFA07E03280420A076287E002804BF78
:10E4D000A07E042802D10020A0766076216A080080
:10E4E0000FD0A07E032818BF04280AD1E27E287826
:10E4F00082F00102104204D00120207707208847D3
:10E5000001E000202077182101A8FEF7EBF9002098
:10E510008DF8040002908DF80C0004906B4EA07EE4
:10E52000401E03284AD8DFE800F0020C1A3104F13B
:10E530001000029001208DF80400002005900120B9
:10E5400035E004F11000029001208DF80400A86865
:10E55000ADF816006868ADF81400022027E068697D
:10E56000ADF816002869ADF814002046FFF7CCFE80
:10E5700029780840E17E81F00101084208BF0320AC
:10E5800015D000F028F820BB052016E0E869ADF8AA
:10E590001400286AADF816002046FFF7B5FE29786A
:10E5A0000840E17E81F00101084202D1042060763A
:10E5B00006E000F010F860B906206076A07E10B189
:10E5C00001A873DF28B9216A08001CBF607E884754
:10E5D000002008B070BD02208DF80C0004940420C7
:10E5E000F07000213046FEF7BDBF000010B5018875
:10E5F000344C102904D0112908D019290ED010BD8F
:10E60000017D01292DD18088E08310BD0021E176B4
:10E610008088E18B884224D1012010E0807900BB02
:10E62000A07E401E03281CD8DFE800F0020406127A
:10E63000022004E0032002E0032060760420FFF7BC
:10E64000F9FE70B1616A0A000BD0BDE810400847BE
:10E6500000206076216A080003D0BDE81040002049
:10E66000084710BD801E012800D9704710B5154C11
:10E67000207E58B100202076A07EFFF7DBFE28B177
:10E68000616A0A001CBFBDE81040084710BD10B504
:10E690000C4C0D48E17E007881F0010108420DD05C
:10E6A000A07E08B174DF50B90120E076A07EFFF7AC
:10E6B000C1FE18B1616A0A0018BF8847002010BD6A
:10E6C000101F0020001F00204C2E0020B42D002021
:10E6D0007C2C0020007840B9DFF8600300883B21E3
:10E6E00076DF002818BFFEF7D9B87047FEF7D6B816
:10E6F00080B50020FFF7BCF808B1FEF7CFF800F0B6
:10E70000DAF908B1FEF7CAF83CDF00281CBFBDE803
:10E710000240FEF7C3B801BD80B548B1032808D157
:10E720000220FFF7A5F820B1BDE80240FEF7B6B819
:10E7300041E001BD38B50446FDF78EF9204600F0F2
:10E74000ADFA204600F0C0F92088BC4D102804D056
:10E7500011280AD14FF6FF7006E00720FFF788F86E
:10E7600008B1FEF79BF8A08828802046BDE832401B
:10E77000FFF73CBF10B50446FDF7AEFD2046BDE8EF
:10E780001040FFF76FBF80B5042804D0072807D0DA
:10E790000A280FD10FE0A9480088132176DF01E095
:10E7A000FFF775FF082805D000281CBFBDE8024010
:10E7B000FEF774B801BDBDE8014099E780B512B11C
:10E7C0001046FEF76BF8002002BD70470FF2B02034
:10E7D0009B4900B5D0E9002383B00020CDE9002398
:10E7E000FFF759FC08B1FEF759F869460020FFF71A
:10E7F0007CFC08B1FEF752F807BD30B5914C8BB0E8
:10E80000002304F1500205210020FEF71BFB08B194
:10E81000FEF744F88C4A40F6CD410320FFF732F86A
:10E8200008B1FEF73BF86946002000F08AF908B10C
:10E83000FEF734F89DF8000002284FF406700CBF74
:10E8400001250025211800234822082000F0A1FA04
:10E8500008B1FEF723F86A460121002000F0C9FA4A
:10E8600008B1FEF71BF8794800F0DBFA08B1FEF7B3
:10E8700015F8684600F0DCFA08B1FEF70FF87448A6
:10E8800000F09AFA08B1FEF709F8724800F09BFA16
:10E8900008B1FEF703F88DF80C50FDF7BFFD08B185
:10E8A000FDF7FCFF03A8FDF701F808B1FDF7F6FF3F
:10E8B00005210DF10500FDF7A1FA9DF8050000F016
:10E8C000C10040F00D008DF80500694607208DF865
:10E8D000060010208DF807005F48009001208DF899
:10E8E000040004F14600FDF738F808B1FDF7D6FF43
:10E8F00011208DF808000A220FF2781102A87CDF9F
:10E9000008B1FDF7CBFF0021CDE900115020ADF893
:10E910000000ADF80410A020ADF802004FF4C8705C
:10E92000ADF8060068467ADF050018BFFDF7B6FFB0
:10E93000002078DF15B12846FDF7B0FF5920208769
:10E94000382104F1480020640320A0872046FDF709
:10E95000C9FF01202070242106206070E070012092
:10E96000208204F14C00606104F13800606201A86B
:10E97000FDF7B8FF01208DF810004FF49670059058
:10E98000B42006900020009001AA344B00212046BC
:10E99000FFF7D0FC08B1FDF781FF1C216846FDF7A9
:10E9A000A1FF002000904FF4203001904FF4702020
:10E9B000029003208DF80C000020ADF80E008DF8B9
:10E9C00010002748059027480690684600F015F982
:10E9D00008B1FDF763FFFFF7F9FE0320FFF72AFDFB
:10E9E00008B1FDF75BFF04F144010020FFF7BBFB1A
:10E9F000B4F94400642100F037F808706421B4F9D8
:10EA0000440090FBF1F1642202FB11000A2100F0A6
:10EA10002BF848700A21B4F9440090FBF1F10A2266
:10EA200002FB1100616A896830308870642000F050
:10EA30004BFA00212046FEF795FDD4E7CC210020BB
:10EA4000CBE70100681F002087E70100001E0020BF
:10EA500035E7010075E70100BDE7010019E7010096
:10EA6000D5E60100EDE6010090FBF1F0616A8968EE
:10EA70003030704748656C6C6F576F726C64000083
:10EA8000000000000200020080B5012200F055F8ED
:10EA9000002818BF07280DD100F04AF8002818BF39
:10EAA000072807D10A22002100F048F8002814BFE7
:10EAB0000728002002BD80B50320FEF73FFF002895
:10EAC00014BF0628002002BD10B5314C00886168D3
:10EAD000102802D011281ED010BDC1B9012200F0AB
:10EAE0002DF8002818BF07280CD100F021F80028C5
:10EAF00018BF072806D1042200F01FF8002818BF0D
:10EB0000072804D018B121680A0018BF8847606838
:10EB1000401C606010BD481E606008D1FFF7B4FF64
:10EB200028B121680A001CBFBDE81040084710BD8D
:10EB3000072202210120FEF7E5BE02210020FEF798
:10EB4000E1BE70B5124D82B00E4600242860BEB101
:10EB50000DF101010020FEF737FD78B9694601206B
:10EB6000FEF732FD50B99DF8000008B1022003E025
:10EB70009DF8010000B10B20307001E0040004D1C9
:10EB8000686810B9FFF780FF0446204676BD000094
:10EB9000E02E0020604940880B88984223BF4988B6
:10EBA000814201200020704710B55C4CE08B4FF68D
:10EBB000FF71884282B01FD0217F227B491C2177C0
:10EBC000C9B28A4207D3544975DFA8B1A1690A00C6
:10EBD00012D0884713BD00212177217C31B13B2120
:10EBE00076DF18B1A1690A0018BF8847616908007B
:10EBF00002D0002000F04EF813BD38B50446474D52
:10EC0000284621461C22FDF71DFE0020687721685A
:10EC1000414C0029204612D000F07BF820467ADFD4
:10EC200060B94FF6FF70E883002028770021BDE827
:10EC300038403B4A0FF2F000FEF742B932BD7BDFAD
:10EC40000028EED032BD10B582B03648334CFFF705
:10EC5000A1FFB0B9607F20B16169080017D0002022
:10EC600013E0207F00280CBF6168A168002204F136
:10EC70002000FEF757F950B1A1690A0007D0884774
:10EC800005E06169080002D0012000F003F80020CF
:10EC9000607713BD8DF800006846084710B501463F
:10ECA0001E4C0A881F48102A06D0112A0ED0122A9C
:10ECB00028D0502A10D010BD8A88E283163100F087
:10ECC00028F800202077E08910BB1EE04FF6FF7087
:10ECD000E083002020770AE0C888E289904204BFE0
:10ECE000C88B022814D191F82000C0070DD404F17C
:10ECF0002000FEF737F958B1A1690A0008D0BDE835
:10ED000010400847891D00F004F8BDE810409AE75C
:10ED100010BD0822FDF786BDD02E0020342D002026
:10ED2000A9EB0100D82E0020542D0020FDF7C8BD0E
:10ED30007CB5444C207858B320690028E0680CBFAB
:10ED40000125002500280CBF0126002665B968466C
:10ED500052DF052808BF012506D010B1FDF79EFD42
:10ED600002E000982169884786B96088ADF8040000
:10ED700001A9A06861DF052808BF012606D010B1EF
:10ED8000FDF78CFD02E0A068E16888473542DDD0E0
:10ED900073BD10B571B111F003040BD1294CA16002
:10EDA00062806360284910DF18B9012020701620A6
:10EDB0002EDF10BD072010BD01000FBF0E2021491E
:10EDC000C8600020704701000FBF0E201D49086178
:10EDD0000020704780B51B484068010005D080477F
:10EDE00030B1BDE80240FDF759BDBDE801409FE7E5
:10EDF00001BD70B505460E46144614212046FDF7A8
:10EE000071FD012020802672002020616572207B28
:10EE100000F0FE00207328001CBF0120A07200201B
:10EE200070BD81B0094900910020009901B0704780
:10EE300082B00649019101990091694660DF02B0F4
:10EE400070470000B02E00202DED0100001F0020B3
:10EE5000401E00BF00BF00BF00BF00BF00BF00BF1B
:10EE600000BF00BF00BF00BF00BF00BF00BF00BFAA
:10EE700000BF00BF00BF00BF00BF00BF00BF00BF9A
:10EE800000BF00BF00BF00BF00BF00BF00BF00BF8A
:10EE900000BF00BF00BF00BF00BF00BF00BF00BF7A
:10EEA00000BF00BF00BF00BF00BF00BF00BF00BF6A
:10EEB00000BF00BF00BF00BF00BF00BF00BF00BF5A
:10EEC00000BF00BFC4D1704701B506E00098401EE6
:10EED000009040F2E730FFF7BBFF00980028F5D123
:10EEE00001BDFEE707E0D0F80403084018BF012089
:10EEF000C0B2704700BF405800B10120C0B2704797
:10EF0000DFF8601200200860DFF84C028168828A16
:10EF1000895C828A521C8282DFF84C020160704751
:10EF20004FF48E713046DDE7DFF82C22DFF8400227
:10EF3000D37DDFF838121BB900220A6000687047E1
:10EF400000230B60517E0068D3685854507E401CEB
:10EF50005076704700B585B001228DF800200191F0
:10EF60008DF8080068467C4A0BE000B585B00021AA
:10EF70008DF808008DF80010774A9068917501901F
:10EF8000684611685268904705B000BD2DE9FF4101
:10EF9000704E4FF400713046FFF7A5FF714C6E4D77
:10EFA0006F4F4FF4017890B14FF49271FFF7BAFFB1
:10EFB00068B10020A060C7F80080A87E08B90120D1
:10EFC000706000F0AAF8E87D00F0AFF823E00421BB
:10EFD0003046FFF788FFF0B14FF48471FFF7A2FFCE
:10EFE000C8B1FFF7A1FFE87D697E884213D12A7E70
:10EFF000E968100004D0687E00F089F86A7608E0BD
:10F00000A87E08B901207060C7F800800020E8756C
:10F01000687EFFF79FFFFFF783FF60B1A87DA98A95
:10F02000814202D2FFF76CFF05E000212160010060
:10F0300018BFFFF79AFF4FF4A271FFF773FF68B193
:10F040000020A062A87E08B101203060E87D28B1D0
:10F050000020E875E968687EFFF77CFFBDE8FF8166
:10F06000F0B53C4F85B04FF4927100F069F83B4C1D
:10F07000394D424E38B10020606100F04EF83068E2
:10F0800000F053F820E04FF4887100F059F8D8B13F
:10F09000002020603068EA7DC1B2914214D12A7EFE
:10F0A000E96813000BD0334BD3F800C06FF0200E8B
:10F0B0000EEA0C0CC3F800C000F029F801E00022B1
:10F0C000EA75C0B2FFF746FF4FF4A27100F038F8BE
:10F0D00000281FBF00206063E87D002806D00020C4
:10F0E000E8753068E968C0B2FFF734FF4FF49071FB
:10F0F00000F026F800281FBF00202061A87D00280E
:10F1000003D03069C0B2FFF730FF05B0F0BDEA753B
:10F110002A69EA6000222A76704702208DF80000F2
:10F120001548016801600391704729686A688DF885
:10F130000800E86801900020E875287668461047C6
:10F140003846D7E60448007F002818BFFFF788BF7D
:10F150001CE7000000200040902E002010210040FD
:10F16000082300401C2100401C25004008210040CD
:10F170001825004000220040802400403C2500402B
:10F1800010B5704970480A78062A04BF0A7912F04F
:10F190000F0F1DD18A6802F0F003302B04BF0B7BE8
:10F1A00013F0F00F0FD002F0F003402B04BF0B7BE5
:10F1B00013F0F00F07D002F0F002502A04BF0A7BD0
:10F1C00012F0F00F04D1614A1268C2F34232426079
:10F1D0000A78062A04BF0A7912F00F0F0DD10A7AB5
:10F1E00002F0F002302A04BF0A7B12F0F00F04D1C3
:10F1F000574A136823F0807313600A78062A04BF05
:10F200000A7912F00F0F1DD18A6802F0F003302B3B
:10F2100004BF0B7B13F0F00F0FD002F0F003402B74
:10F2200004BF0B7B13F0F00F07D002F0F002502A5E
:10F2300004BF0A7B12F0F00F04D1464A002313608A
:10F24000536003600A78062A04BF0A7912F00F0F90
:10F2500009D10A7A02F0F002302A01BF0A7B12F0CB
:10F26000F00F032282660878062804BF087910F0A0
:10F270000F0F2CD1087A00F0F000502804BF087B53
:10F2800010F0F00F23D1344934480A6802604A680C
:10F2900042608A688260CA68C2600A6902614A691B
:10F2A00042618A690262CA6942620A6A82624A6A81
:10F2B000C2628A6A0263CA6A42630A6B02644A6B68
:10F2C00042648A6B8264CA6BC264096C016524481B
:10F2D000C16F41F47001C167BFF34F8FBFF36F8FF0
:10F2E00020490A68002A5CBF0A68002A21D51E4A04
:10F2F000012313601D4B1C68002CFCD015240C60EE
:10F300001C68002CFCD015244C6019680029FCD026
:10F310000021116019680029FCD0BFF34F8F0168EC
:10F32000134A01F4E06111430160BFF34F8F00BF46
:10F33000FDE702490248086010BD0000C821002016
:10F340000090D003E00F00F03805004044020010A8
:10F35000FCED00E00C0100400404001020C500405A
:10F360000CED00E00012001004E5014000E4014053
:10F370000400FA0519E050F8041BCB0744BFA9F1BB
:10F3800001035918121F0023042A41F8043BF9D243
:10F390005FEA827C0B4604D54FF0000CA1F800C058
:10F3A0009B1CD10744BF0021197050F8042B002A80
:10F3B000E1D1704730B5016842688468014401EBCF
:10F3C0005203D20748BF4C44994201D10C3030BDA2
:10F3D00011F9012B11F8015B002A04F8015B02D539
:10F3E000521CF9D1F0E7521EF4D5EDE710B50749EC
:10F3F00079441831064C7C44163404E00A68081D30
:10F40000114488470146A142F8D110BD2C000000EC
:10F41000480000004EF68851CEF20001086840F422
:10F4200070000860BFF34F8FBFF36F8F4FF0007015
:10F43000E1EE100A704700003DFFFFFF18050000D5
:10F44000D0290020000000006DFFFFFF9A0000009F
:10F4500040000000001F0020FEE700000120C04621
:10F46000002801D0FFF7C2FF0020C046C046FFF7CA
:10F47000C4F900F000F800F001B8FEE7074638468E
:10F4800000F002F8FBE7FEE72021090326311820EF
:10F49000ABBEF9E7014880470148004781F1010010
:10F4A000A5F40100C046C046FFF7B4FFFFF7D6FF42
:10F4B000FEE7FEE7FEE7FEE7FEE7FEE7FEE7FEE724
:10F4C000FEE7FEE7FEE7FEE7FEE7FEE7FEE7FEE714
:10F4D000FEE7FEE7FEE7FEE7FEE7FEE7FEE7FEE704
:10F4E000FEE7FEE7FEE7E200FEFF8100EF000631E7
:10F4F0003132000A18018100810081008100EA0098
:06F500000490D003FFFFA0
:040000050001F4A55D
:00000001FF
